{
  "contractName": "X07Kiddos",
  "abi": [
    {
      "inputs": [
        {
          "internalType": "string",
          "name": "_name",
          "type": "string"
        },
        {
          "internalType": "string",
          "name": "_symbol",
          "type": "string"
        },
        {
          "internalType": "string",
          "name": "_initBaseURI",
          "type": "string"
        },
        {
          "internalType": "address",
          "name": "_proxyRegistryAddress",
          "type": "address"
        }
      ],
      "stateMutability": "nonpayable",
      "type": "constructor"
    },
    {
      "anonymous": false,
      "inputs": [
        {
          "indexed": true,
          "internalType": "address",
          "name": "owner",
          "type": "address"
        },
        {
          "indexed": true,
          "internalType": "address",
          "name": "approved",
          "type": "address"
        },
        {
          "indexed": true,
          "internalType": "uint256",
          "name": "tokenId",
          "type": "uint256"
        }
      ],
      "name": "Approval",
      "type": "event"
    },
    {
      "anonymous": false,
      "inputs": [
        {
          "indexed": true,
          "internalType": "address",
          "name": "owner",
          "type": "address"
        },
        {
          "indexed": true,
          "internalType": "address",
          "name": "operator",
          "type": "address"
        },
        {
          "indexed": false,
          "internalType": "bool",
          "name": "approved",
          "type": "bool"
        }
      ],
      "name": "ApprovalForAll",
      "type": "event"
    },
    {
      "anonymous": false,
      "inputs": [
        {
          "indexed": true,
          "internalType": "address",
          "name": "previousOwner",
          "type": "address"
        },
        {
          "indexed": true,
          "internalType": "address",
          "name": "newOwner",
          "type": "address"
        }
      ],
      "name": "OwnershipTransferred",
      "type": "event"
    },
    {
      "anonymous": false,
      "inputs": [
        {
          "indexed": true,
          "internalType": "address",
          "name": "from",
          "type": "address"
        },
        {
          "indexed": true,
          "internalType": "address",
          "name": "to",
          "type": "address"
        },
        {
          "indexed": true,
          "internalType": "uint256",
          "name": "tokenId",
          "type": "uint256"
        }
      ],
      "name": "Transfer",
      "type": "event"
    },
    {
      "inputs": [
        {
          "internalType": "address",
          "name": "to",
          "type": "address"
        },
        {
          "internalType": "uint256",
          "name": "tokenId",
          "type": "uint256"
        }
      ],
      "name": "approve",
      "outputs": [],
      "stateMutability": "nonpayable",
      "type": "function"
    },
    {
      "inputs": [
        {
          "internalType": "address",
          "name": "owner",
          "type": "address"
        }
      ],
      "name": "balanceOf",
      "outputs": [
        {
          "internalType": "uint256",
          "name": "",
          "type": "uint256"
        }
      ],
      "stateMutability": "view",
      "type": "function",
      "constant": true
    },
    {
      "inputs": [],
      "name": "baseExtension",
      "outputs": [
        {
          "internalType": "string",
          "name": "",
          "type": "string"
        }
      ],
      "stateMutability": "view",
      "type": "function",
      "constant": true
    },
    {
      "inputs": [],
      "name": "baseURI",
      "outputs": [
        {
          "internalType": "string",
          "name": "",
          "type": "string"
        }
      ],
      "stateMutability": "view",
      "type": "function",
      "constant": true
    },
    {
      "inputs": [],
      "name": "cost",
      "outputs": [
        {
          "internalType": "uint256",
          "name": "",
          "type": "uint256"
        }
      ],
      "stateMutability": "view",
      "type": "function",
      "constant": true
    },
    {
      "inputs": [
        {
          "internalType": "uint256",
          "name": "tokenId",
          "type": "uint256"
        }
      ],
      "name": "getApproved",
      "outputs": [
        {
          "internalType": "address",
          "name": "",
          "type": "address"
        }
      ],
      "stateMutability": "view",
      "type": "function",
      "constant": true
    },
    {
      "inputs": [],
      "name": "name",
      "outputs": [
        {
          "internalType": "string",
          "name": "",
          "type": "string"
        }
      ],
      "stateMutability": "view",
      "type": "function",
      "constant": true
    },
    {
      "inputs": [],
      "name": "owner",
      "outputs": [
        {
          "internalType": "address",
          "name": "",
          "type": "address"
        }
      ],
      "stateMutability": "view",
      "type": "function",
      "constant": true
    },
    {
      "inputs": [
        {
          "internalType": "uint256",
          "name": "tokenId",
          "type": "uint256"
        }
      ],
      "name": "ownerOf",
      "outputs": [
        {
          "internalType": "address",
          "name": "",
          "type": "address"
        }
      ],
      "stateMutability": "view",
      "type": "function",
      "constant": true
    },
    {
      "inputs": [],
      "name": "paused",
      "outputs": [
        {
          "internalType": "bool",
          "name": "",
          "type": "bool"
        }
      ],
      "stateMutability": "view",
      "type": "function",
      "constant": true
    },
    {
      "inputs": [
        {
          "internalType": "address",
          "name": "",
          "type": "address"
        }
      ],
      "name": "projectProxy",
      "outputs": [
        {
          "internalType": "bool",
          "name": "",
          "type": "bool"
        }
      ],
      "stateMutability": "view",
      "type": "function",
      "constant": true
    },
    {
      "inputs": [],
      "name": "proxyRegistryAddress",
      "outputs": [
        {
          "internalType": "address",
          "name": "",
          "type": "address"
        }
      ],
      "stateMutability": "view",
      "type": "function",
      "constant": true
    },
    {
      "inputs": [],
      "name": "renounceOwnership",
      "outputs": [],
      "stateMutability": "nonpayable",
      "type": "function"
    },
    {
      "inputs": [
        {
          "internalType": "address",
          "name": "from",
          "type": "address"
        },
        {
          "internalType": "address",
          "name": "to",
          "type": "address"
        },
        {
          "internalType": "uint256",
          "name": "tokenId",
          "type": "uint256"
        }
      ],
      "name": "safeTransferFrom",
      "outputs": [],
      "stateMutability": "nonpayable",
      "type": "function"
    },
    {
      "inputs": [
        {
          "internalType": "address",
          "name": "from",
          "type": "address"
        },
        {
          "internalType": "address",
          "name": "to",
          "type": "address"
        },
        {
          "internalType": "uint256",
          "name": "tokenId",
          "type": "uint256"
        },
        {
          "internalType": "bytes",
          "name": "_data",
          "type": "bytes"
        }
      ],
      "name": "safeTransferFrom",
      "outputs": [],
      "stateMutability": "nonpayable",
      "type": "function"
    },
    {
      "inputs": [
        {
          "internalType": "address",
          "name": "operator",
          "type": "address"
        },
        {
          "internalType": "bool",
          "name": "approved",
          "type": "bool"
        }
      ],
      "name": "setApprovalForAll",
      "outputs": [],
      "stateMutability": "nonpayable",
      "type": "function"
    },
    {
      "inputs": [
        {
          "internalType": "bytes4",
          "name": "interfaceId",
          "type": "bytes4"
        }
      ],
      "name": "supportsInterface",
      "outputs": [
        {
          "internalType": "bool",
          "name": "",
          "type": "bool"
        }
      ],
      "stateMutability": "view",
      "type": "function",
      "constant": true
    },
    {
      "inputs": [],
      "name": "symbol",
      "outputs": [
        {
          "internalType": "string",
          "name": "",
          "type": "string"
        }
      ],
      "stateMutability": "view",
      "type": "function",
      "constant": true
    },
    {
      "inputs": [
        {
          "internalType": "uint256",
          "name": "index",
          "type": "uint256"
        }
      ],
      "name": "tokenByIndex",
      "outputs": [
        {
          "internalType": "uint256",
          "name": "",
          "type": "uint256"
        }
      ],
      "stateMutability": "view",
      "type": "function",
      "constant": true
    },
    {
      "inputs": [
        {
          "internalType": "address",
          "name": "owner",
          "type": "address"
        },
        {
          "internalType": "uint256",
          "name": "index",
          "type": "uint256"
        }
      ],
      "name": "tokenOfOwnerByIndex",
      "outputs": [
        {
          "internalType": "uint256",
          "name": "",
          "type": "uint256"
        }
      ],
      "stateMutability": "view",
      "type": "function",
      "constant": true
    },
    {
      "inputs": [],
      "name": "totalSupply",
      "outputs": [
        {
          "internalType": "uint256",
          "name": "",
          "type": "uint256"
        }
      ],
      "stateMutability": "view",
      "type": "function",
      "constant": true
    },
    {
      "inputs": [
        {
          "internalType": "address",
          "name": "from",
          "type": "address"
        },
        {
          "internalType": "address",
          "name": "to",
          "type": "address"
        },
        {
          "internalType": "uint256",
          "name": "tokenId",
          "type": "uint256"
        }
      ],
      "name": "transferFrom",
      "outputs": [],
      "stateMutability": "nonpayable",
      "type": "function"
    },
    {
      "inputs": [
        {
          "internalType": "address",
          "name": "newOwner",
          "type": "address"
        }
      ],
      "name": "transferOwnership",
      "outputs": [],
      "stateMutability": "nonpayable",
      "type": "function"
    },
    {
      "inputs": [],
      "name": "whitelistOnly",
      "outputs": [
        {
          "internalType": "bool",
          "name": "",
          "type": "bool"
        }
      ],
      "stateMutability": "view",
      "type": "function",
      "constant": true
    },
    {
      "inputs": [
        {
          "internalType": "address",
          "name": "",
          "type": "address"
        }
      ],
      "name": "whitelisted",
      "outputs": [
        {
          "internalType": "bool",
          "name": "",
          "type": "bool"
        }
      ],
      "stateMutability": "view",
      "type": "function",
      "constant": true
    },
    {
      "inputs": [
        {
          "internalType": "address",
          "name": "_to",
          "type": "address"
        },
        {
          "internalType": "uint256",
          "name": "_mintAmount",
          "type": "uint256"
        }
      ],
      "name": "mint",
      "outputs": [],
      "stateMutability": "payable",
      "type": "function",
      "payable": true
    },
    {
      "inputs": [
        {
          "internalType": "address",
          "name": "_owner",
          "type": "address"
        }
      ],
      "name": "walletOfOwner",
      "outputs": [
        {
          "internalType": "uint256[]",
          "name": "",
          "type": "uint256[]"
        }
      ],
      "stateMutability": "view",
      "type": "function",
      "constant": true
    },
    {
      "inputs": [
        {
          "internalType": "uint256",
          "name": "tokenId",
          "type": "uint256"
        }
      ],
      "name": "tokenURI",
      "outputs": [
        {
          "internalType": "string",
          "name": "",
          "type": "string"
        }
      ],
      "stateMutability": "view",
      "type": "function",
      "constant": true
    },
    {
      "inputs": [
        {
          "internalType": "address",
          "name": "_to",
          "type": "address"
        },
        {
          "internalType": "uint256",
          "name": "_reservesAmount",
          "type": "uint256"
        }
      ],
      "name": "collectReserves",
      "outputs": [],
      "stateMutability": "nonpayable",
      "type": "function"
    },
    {
      "inputs": [
        {
          "internalType": "address",
          "name": "_proxyRegistryAddress",
          "type": "address"
        }
      ],
      "name": "setProxyRegistryAddress",
      "outputs": [],
      "stateMutability": "nonpayable",
      "type": "function"
    },
    {
      "inputs": [
        {
          "internalType": "address",
          "name": "proxyAddress",
          "type": "address"
        }
      ],
      "name": "flipProxyState",
      "outputs": [],
      "stateMutability": "nonpayable",
      "type": "function"
    },
    {
      "inputs": [
        {
          "internalType": "string",
          "name": "_newBaseURI",
          "type": "string"
        }
      ],
      "name": "setBaseURI",
      "outputs": [],
      "stateMutability": "nonpayable",
      "type": "function"
    },
    {
      "inputs": [
        {
          "internalType": "string",
          "name": "_newBaseExtension",
          "type": "string"
        }
      ],
      "name": "setBaseExtension",
      "outputs": [],
      "stateMutability": "nonpayable",
      "type": "function"
    },
    {
      "inputs": [
        {
          "internalType": "bool",
          "name": "_state",
          "type": "bool"
        }
      ],
      "name": "pause",
      "outputs": [],
      "stateMutability": "nonpayable",
      "type": "function"
    },
    {
      "inputs": [
        {
          "internalType": "bool",
          "name": "_state",
          "type": "bool"
        }
      ],
      "name": "activateWhitelist",
      "outputs": [],
      "stateMutability": "nonpayable",
      "type": "function"
    },
    {
      "inputs": [
        {
          "internalType": "address[]",
          "name": "_user",
          "type": "address[]"
        }
      ],
      "name": "whitelistUser",
      "outputs": [],
      "stateMutability": "nonpayable",
      "type": "function"
    },
    {
      "inputs": [
        {
          "internalType": "address[]",
          "name": "_user",
          "type": "address[]"
        }
      ],
      "name": "removeWhitelistUser",
      "outputs": [],
      "stateMutability": "nonpayable",
      "type": "function"
    },
    {
      "inputs": [],
      "name": "withdraw",
      "outputs": [],
      "stateMutability": "payable",
      "type": "function",
      "payable": true
    },
    {
      "inputs": [
        {
          "internalType": "address",
          "name": "_owner",
          "type": "address"
        },
        {
          "internalType": "address",
          "name": "operator",
          "type": "address"
        }
      ],
      "name": "isApprovedForAll",
      "outputs": [
        {
          "internalType": "bool",
          "name": "",
          "type": "bool"
        }
      ],
      "stateMutability": "view",
      "type": "function",
      "constant": true
    }
  ],
  "bytecode": "0x60806040526040518060400160405280600581526020017f2e6a736f6e000000000000000000000000000000000000000000000000000000815250600c90805190602001906200005192919062000320565b50606c600d5566f8b0a10e470000600e556000600f60006101000a81548160ff0219169083151502179055506001600f60016101000a81548160ff021916908315150217905550348015620000a557600080fd5b506040516200542e3803806200542e8339818101604052810190620000cb9190620005d2565b83838160009080519060200190620000e592919062000320565b508060019080519060200190620000fe92919062000320565b50505062000121620001156200017d60201b60201c565b6200018560201b60201c565b62000132826200024b60201b60201c565b80601160006101000a81548173ffffffffffffffffffffffffffffffffffffffff021916908373ffffffffffffffffffffffffffffffffffffffff1602179055505050505062000789565b600033905090565b6000600a60009054906101000a900473ffffffffffffffffffffffffffffffffffffffff16905081600a60006101000a81548173ffffffffffffffffffffffffffffffffffffffff021916908373ffffffffffffffffffffffffffffffffffffffff1602179055508173ffffffffffffffffffffffffffffffffffffffff168173ffffffffffffffffffffffffffffffffffffffff167f8be0079c531659141344cd1fd0a4f28419497f9722a3daafe3b4186f6b6457e060405160405180910390a35050565b6200025b6200017d60201b60201c565b73ffffffffffffffffffffffffffffffffffffffff1662000281620002f660201b60201c565b73ffffffffffffffffffffffffffffffffffffffff1614620002da576040517f08c379a0000000000000000000000000000000000000000000000000000000008152600401620002d19062000702565b60405180910390fd5b80600b9080519060200190620002f292919062000320565b5050565b6000600a60009054906101000a900473ffffffffffffffffffffffffffffffffffffffff16905090565b8280546200032e9062000753565b90600052602060002090601f0160209004810192826200035257600085556200039e565b82601f106200036d57805160ff19168380011785556200039e565b828001600101855582156200039e579182015b828111156200039d57825182559160200191906001019062000380565b5b509050620003ad9190620003b1565b5090565b5b80821115620003cc576000816000905550600101620003b2565b5090565b6000604051905090565b600080fd5b600080fd5b600080fd5b600080fd5b6000601f19601f8301169050919050565b7f4e487b7100000000000000000000000000000000000000000000000000000000600052604160045260246000fd5b6200043982620003ee565b810181811067ffffffffffffffff821117156200045b576200045a620003ff565b5b80604052505050565b600062000470620003d0565b90506200047e82826200042e565b919050565b600067ffffffffffffffff821115620004a157620004a0620003ff565b5b620004ac82620003ee565b9050602081019050919050565b60005b83811015620004d9578082015181840152602081019050620004bc565b83811115620004e9576000848401525b50505050565b600062000506620005008462000483565b62000464565b905082815260208101848484011115620005255762000524620003e9565b5b62000532848285620004b9565b509392505050565b600082601f830112620005525762000551620003e4565b5b815162000564848260208601620004ef565b91505092915050565b600073ffffffffffffffffffffffffffffffffffffffff82169050919050565b60006200059a826200056d565b9050919050565b620005ac816200058d565b8114620005b857600080fd5b50565b600081519050620005cc81620005a1565b92915050565b60008060008060808587031215620005ef57620005ee620003da565b5b600085015167ffffffffffffffff81111562000610576200060f620003df565b5b6200061e878288016200053a565b945050602085015167ffffffffffffffff811115620006425762000641620003df565b5b62000650878288016200053a565b935050604085015167ffffffffffffffff811115620006745762000673620003df565b5b62000682878288016200053a565b92505060606200069587828801620005bb565b91505092959194509250565b600082825260208201905092915050565b7f4f776e61626c653a2063616c6c6572206973206e6f7420746865206f776e6572600082015250565b6000620006ea602083620006a1565b9150620006f782620006b2565b602082019050919050565b600060208201905081810360008301526200071d81620006db565b9050919050565b7f4e487b7100000000000000000000000000000000000000000000000000000000600052602260045260246000fd5b600060028204905060018216806200076c57607f821691505b6020821081141562000783576200078262000724565b5b50919050565b614c9580620007996000396000f3fe6080604052600436106102305760003560e01c80635c975abb1161012e578063b88d4fde116100ab578063d936547e1161006f578063d936547e14610831578063da3ef23f1461086e578063e985e9c514610897578063f2fde38b146108d4578063f73c814b146108fd57610230565b8063b88d4fde1461074c578063c668286214610775578063c87b56dd146107a0578063cd7c0326146107dd578063d26ea6c01461080857610230565b80638da5cb5b116100f25780638da5cb5b1461067b57806395d89b41146106a6578063999abb7b146106d15780639b6fbf8a146106fa578063a22cb4651461072357610230565b80635c975abb146105945780636352211e146105bf5780636c0360eb146105fc57806370a0823114610627578063715018a61461066457610230565b8063390c4caf116101bc5780634b4687b5116101805780634b4687b51461049d5780634cedfc0c146104c85780634f6ccce7146104f157806355f804b31461052e5780635bab26e21461055757610230565b8063390c4caf146103e85780633ccfd60b1461041157806340c10f191461041b57806342842e0e14610437578063438b63001461046057610230565b8063095ea7b311610203578063095ea7b31461030357806313faede61461032c57806318160ddd1461035757806323b872dd146103825780632f745c59146103ab57610230565b806301ffc9a71461023557806302329a291461027257806306fdde031461029b578063081812fc146102c6575b600080fd5b34801561024157600080fd5b5061025c6004803603810190610257919061343b565b610926565b6040516102699190613483565b60405180910390f35b34801561027e57600080fd5b50610299600480360381019061029491906134ca565b6109a0565b005b3480156102a757600080fd5b506102b0610a39565b6040516102bd9190613590565b60405180910390f35b3480156102d257600080fd5b506102ed60048036038101906102e891906135e8565b610acb565b6040516102fa9190613656565b60405180910390f35b34801561030f57600080fd5b5061032a6004803603810190610325919061369d565b610b50565b005b34801561033857600080fd5b50610341610c68565b60405161034e91906136ec565b60405180910390f35b34801561036357600080fd5b5061036c610c6e565b60405161037991906136ec565b60405180910390f35b34801561038e57600080fd5b506103a960048036038101906103a49190613707565b610c7b565b005b3480156103b757600080fd5b506103d260048036038101906103cd919061369d565b610cdb565b6040516103df91906136ec565b60405180910390f35b3480156103f457600080fd5b5061040f600480360381019061040a919061369d565b610d80565b005b610419610e9e565b005b6104356004803603810190610430919061369d565b610f5a565b005b34801561044357600080fd5b5061045e60048036038101906104599190613707565b611203565b005b34801561046c57600080fd5b506104876004803603810190610482919061375a565b611223565b6040516104949190613845565b60405180910390f35b3480156104a957600080fd5b506104b261132d565b6040516104bf9190613483565b60405180910390f35b3480156104d457600080fd5b506104ef60048036038101906104ea91906134ca565b611340565b005b3480156104fd57600080fd5b50610518600480360381019061051391906135e8565b6113d9565b60405161052591906136ec565b60405180910390f35b34801561053a57600080fd5b506105556004803603810190610550919061399c565b61144a565b005b34801561056357600080fd5b5061057e6004803603810190610579919061375a565b6114e0565b60405161058b9190613483565b60405180910390f35b3480156105a057600080fd5b506105a9611500565b6040516105b69190613483565b60405180910390f35b3480156105cb57600080fd5b506105e660048036038101906105e191906135e8565b611513565b6040516105f39190613656565b60405180910390f35b34801561060857600080fd5b506106116115c5565b60405161061e9190613590565b60405180910390f35b34801561063357600080fd5b5061064e6004803603810190610649919061375a565b611653565b60405161065b91906136ec565b60405180910390f35b34801561067057600080fd5b5061067961170b565b005b34801561068757600080fd5b50610690611793565b60405161069d9190613656565b60405180910390f35b3480156106b257600080fd5b506106bb6117bd565b6040516106c89190613590565b60405180910390f35b3480156106dd57600080fd5b506106f860048036038101906106f39190613aad565b61184f565b005b34801561070657600080fd5b50610721600480360381019061071c9190613aad565b611960565b005b34801561072f57600080fd5b5061074a60048036038101906107459190613af6565b611a71565b005b34801561075857600080fd5b50610773600480360381019061076e9190613bd7565b611a87565b005b34801561078157600080fd5b5061078a611ae9565b6040516107979190613590565b60405180910390f35b3480156107ac57600080fd5b506107c760048036038101906107c291906135e8565b611b77565b6040516107d49190613590565b60405180910390f35b3480156107e957600080fd5b506107f2611bf6565b6040516107ff9190613656565b60405180910390f35b34801561081457600080fd5b5061082f600480360381019061082a919061375a565b611c1c565b005b34801561083d57600080fd5b506108586004803603810190610853919061375a565b611cdc565b6040516108659190613483565b60405180910390f35b34801561087a57600080fd5b506108956004803603810190610890919061399c565b611cfc565b005b3480156108a357600080fd5b506108be60048036038101906108b99190613c5a565b611d92565b6040516108cb9190613483565b60405180910390f35b3480156108e057600080fd5b506108fb60048036038101906108f6919061375a565b611ed9565b005b34801561090957600080fd5b50610924600480360381019061091f919061375a565b611fd1565b005b60007f780e9d63000000000000000000000000000000000000000000000000000000007bffffffffffffffffffffffffffffffffffffffffffffffffffffffff1916827bffffffffffffffffffffffffffffffffffffffffffffffffffffffff191614806109995750610998826120f4565b5b9050919050565b6109a86121d6565b73ffffffffffffffffffffffffffffffffffffffff166109c6611793565b73ffffffffffffffffffffffffffffffffffffffff1614610a1c576040517f08c379a0000000000000000000000000000000000000000000000000000000008152600401610a1390613ce6565b60405180910390fd5b80600f60006101000a81548160ff02191690831515021790555050565b606060008054610a4890613d35565b80601f0160208091040260200160405190810160405280929190818152602001828054610a7490613d35565b8015610ac15780601f10610a9657610100808354040283529160200191610ac1565b820191906000526020600020905b815481529060010190602001808311610aa457829003601f168201915b5050505050905090565b6000610ad6826121de565b610b15576040517f08c379a0000000000000000000000000000000000000000000000000000000008152600401610b0c90613dd9565b60405180910390fd5b6004600083815260200190815260200160002060009054906101000a900473ffffffffffffffffffffffffffffffffffffffff169050919050565b6000610b5b82611513565b90508073ffffffffffffffffffffffffffffffffffffffff168373ffffffffffffffffffffffffffffffffffffffff161415610bcc576040517f08c379a0000000000000000000000000000000000000000000000000000000008152600401610bc390613e6b565b60405180910390fd5b8073ffffffffffffffffffffffffffffffffffffffff16610beb6121d6565b73ffffffffffffffffffffffffffffffffffffffff161480610c1a5750610c1981610c146121d6565b611d92565b5b610c59576040517f08c379a0000000000000000000000000000000000000000000000000000000008152600401610c5090613efd565b60405180910390fd5b610c63838361224a565b505050565b600e5481565b6000600880549050905090565b610c8c610c866121d6565b82612303565b610ccb576040517f08c379a0000000000000000000000000000000000000000000000000000000008152600401610cc290613f8f565b60405180910390fd5b610cd68383836123e1565b505050565b6000610ce683611653565b8210610d27576040517f08c379a0000000000000000000000000000000000000000000000000000000008152600401610d1e90614021565b60405180910390fd5b600660008473ffffffffffffffffffffffffffffffffffffffff1673ffffffffffffffffffffffffffffffffffffffff168152602001908152602001600020600083815260200190815260200160002054905092915050565b610d886121d6565b73ffffffffffffffffffffffffffffffffffffffff16610da6611793565b73ffffffffffffffffffffffffffffffffffffffff1614610dfc576040517f08c379a0000000000000000000000000000000000000000000000000000000008152600401610df390613ce6565b60405180910390fd5b600d548110610e40576040517f08c379a0000000000000000000000000000000000000000000000000000000008152600401610e379061408d565b60405180910390fd5b6000610e4a610c6e565b905060005b82811015610e7f57610e6c848284610e6791906140dc565b61263d565b8080610e7790614132565b915050610e4f565b5081600d6000828254610e92919061417b565b92505081905550505050565b610ea66121d6565b73ffffffffffffffffffffffffffffffffffffffff16610ec4611793565b73ffffffffffffffffffffffffffffffffffffffff1614610f1a576040517f08c379a0000000000000000000000000000000000000000000000000000000008152600401610f1190613ce6565b60405180910390fd5b3373ffffffffffffffffffffffffffffffffffffffff166108fc479081150290604051600060405180830381858888f19350505050610f5857600080fd5b565b6000610f64610c6e565b9050600f60009054906101000a900460ff1615610f8057600080fd5b60008211610f8d57600080fd5b600b8210610f9a57600080fd5b600d54611e62610faa919061417b565b8282610fb691906140dc565b10610fc057600080fd5b600b82610fcc33611653565b610fd691906140dc565b10611016576040517f08c379a000000000000000000000000000000000000000000000000000000000815260040161100d906141fb565b60405180910390fd5b60001515600f60019054906101000a900460ff16151514156111195761103a611793565b73ffffffffffffffffffffffffffffffffffffffff163373ffffffffffffffffffffffffffffffffffffffff16146110e05760011515601060003373ffffffffffffffffffffffffffffffffffffffff1673ffffffffffffffffffffffffffffffffffffffff16815260200190815260200160002060009054906101000a900460ff161515146110df5781600e546110d2919061421b565b3410156110de57600080fd5b5b5b60005b82811015611113576111008482846110fb91906140dc565b61263d565b808061110b90614132565b9150506110e3565b506111fe565b60011515600f60019054906101000a900460ff16151514156111fd5760011515601060003373ffffffffffffffffffffffffffffffffffffffff1673ffffffffffffffffffffffffffffffffffffffff16815260200190815260200160002060009054906101000a900460ff161515146111c8576040517f08c379a00000000000000000000000000000000000000000000000000000000081526004016111bf906142c1565b60405180910390fd5b60005b828110156111fb576111e88482846111e391906140dc565b61263d565b80806111f390614132565b9150506111cb565b505b5b505050565b61121e83838360405180602001604052806000815250611a87565b505050565b6060600061123083611653565b9050600081141561128d57600067ffffffffffffffff81111561125657611255613871565b5b6040519080825280602002602001820160405280156112845781602001602082028036833780820191505090505b50915050611328565b60008167ffffffffffffffff8111156112a9576112a8613871565b5b6040519080825280602002602001820160405280156112d75781602001602082028036833780820191505090505b50905060005b82811015611321576112ef8582610cdb565b828281518110611302576113016142e1565b5b602002602001018181525050808061131990614132565b9150506112dd565b5080925050505b919050565b600f60019054906101000a900460ff1681565b6113486121d6565b73ffffffffffffffffffffffffffffffffffffffff16611366611793565b73ffffffffffffffffffffffffffffffffffffffff16146113bc576040517f08c379a00000000000000000000000000000000000000000000000000000000081526004016113b390613ce6565b60405180910390fd5b80600f60016101000a81548160ff02191690831515021790555050565b60006113e3610c6e565b8210611424576040517f08c379a000000000000000000000000000000000000000000000000000000000815260040161141b90614382565b60405180910390fd5b60088281548110611438576114376142e1565b5b90600052602060002001549050919050565b6114526121d6565b73ffffffffffffffffffffffffffffffffffffffff16611470611793565b73ffffffffffffffffffffffffffffffffffffffff16146114c6576040517f08c379a00000000000000000000000000000000000000000000000000000000081526004016114bd90613ce6565b60405180910390fd5b80600b90805190602001906114dc92919061332c565b5050565b60126020528060005260406000206000915054906101000a900460ff1681565b600f60009054906101000a900460ff1681565b6000806002600084815260200190815260200160002060009054906101000a900473ffffffffffffffffffffffffffffffffffffffff169050600073ffffffffffffffffffffffffffffffffffffffff168173ffffffffffffffffffffffffffffffffffffffff1614156115bc576040517f08c379a00000000000000000000000000000000000000000000000000000000081526004016115b390614414565b60405180910390fd5b80915050919050565b600b80546115d290613d35565b80601f01602080910402602001604051908101604052809291908181526020018280546115fe90613d35565b801561164b5780601f106116205761010080835404028352916020019161164b565b820191906000526020600020905b81548152906001019060200180831161162e57829003601f168201915b505050505081565b60008073ffffffffffffffffffffffffffffffffffffffff168273ffffffffffffffffffffffffffffffffffffffff1614156116c4576040517f08c379a00000000000000000000000000000000000000000000000000000000081526004016116bb906144a6565b60405180910390fd5b600360008373ffffffffffffffffffffffffffffffffffffffff1673ffffffffffffffffffffffffffffffffffffffff168152602001908152602001600020549050919050565b6117136121d6565b73ffffffffffffffffffffffffffffffffffffffff16611731611793565b73ffffffffffffffffffffffffffffffffffffffff1614611787576040517f08c379a000000000000000000000000000000000000000000000000000000000815260040161177e90613ce6565b60405180910390fd5b611791600061265b565b565b6000600a60009054906101000a900473ffffffffffffffffffffffffffffffffffffffff16905090565b6060600180546117cc90613d35565b80601f01602080910402602001604051908101604052809291908181526020018280546117f890613d35565b80156118455780601f1061181a57610100808354040283529160200191611845565b820191906000526020600020905b81548152906001019060200180831161182857829003601f168201915b5050505050905090565b6118576121d6565b73ffffffffffffffffffffffffffffffffffffffff16611875611793565b73ffffffffffffffffffffffffffffffffffffffff16146118cb576040517f08c379a00000000000000000000000000000000000000000000000000000000081526004016118c290613ce6565b60405180910390fd5b60005b815181101561195c576000601060008484815181106118f0576118ef6142e1565b5b602002602001015173ffffffffffffffffffffffffffffffffffffffff1673ffffffffffffffffffffffffffffffffffffffff16815260200190815260200160002060006101000a81548160ff021916908315150217905550808061195490614132565b9150506118ce565b5050565b6119686121d6565b73ffffffffffffffffffffffffffffffffffffffff16611986611793565b73ffffffffffffffffffffffffffffffffffffffff16146119dc576040517f08c379a00000000000000000000000000000000000000000000000000000000081526004016119d390613ce6565b60405180910390fd5b60005b8151811015611a6d57600160106000848481518110611a0157611a006142e1565b5b602002602001015173ffffffffffffffffffffffffffffffffffffffff1673ffffffffffffffffffffffffffffffffffffffff16815260200190815260200160002060006101000a81548160ff0219169083151502179055508080611a6590614132565b9150506119df565b5050565b611a83611a7c6121d6565b8383612721565b5050565b611a98611a926121d6565b83612303565b611ad7576040517f08c379a0000000000000000000000000000000000000000000000000000000008152600401611ace90613f8f565b60405180910390fd5b611ae38484848461288e565b50505050565b600c8054611af690613d35565b80601f0160208091040260200160405190810160405280929190818152602001828054611b2290613d35565b8015611b6f5780601f10611b4457610100808354040283529160200191611b6f565b820191906000526020600020905b815481529060010190602001808311611b5257829003601f168201915b505050505081565b6060611b82826121de565b611bc1576040517f08c379a0000000000000000000000000000000000000000000000000000000008152600401611bb890614512565b60405180910390fd5b600b611bcc836128ea565b600c604051602001611be093929190614602565b6040516020818303038152906040529050919050565b601160009054906101000a900473ffffffffffffffffffffffffffffffffffffffff1681565b611c246121d6565b73ffffffffffffffffffffffffffffffffffffffff16611c42611793565b73ffffffffffffffffffffffffffffffffffffffff1614611c98576040517f08c379a0000000000000000000000000000000000000000000000000000000008152600401611c8f90613ce6565b60405180910390fd5b80601160006101000a81548173ffffffffffffffffffffffffffffffffffffffff021916908373ffffffffffffffffffffffffffffffffffffffff16021790555050565b60106020528060005260406000206000915054906101000a900460ff1681565b611d046121d6565b73ffffffffffffffffffffffffffffffffffffffff16611d22611793565b73ffffffffffffffffffffffffffffffffffffffff1614611d78576040517f08c379a0000000000000000000000000000000000000000000000000000000008152600401611d6f90613ce6565b60405180910390fd5b80600c9080519060200190611d8e92919061332c565b5050565b600080601160009054906101000a900473ffffffffffffffffffffffffffffffffffffffff1690508273ffffffffffffffffffffffffffffffffffffffff168173ffffffffffffffffffffffffffffffffffffffff1663c4552791866040518263ffffffff1660e01b8152600401611e0a9190613656565b602060405180830381865afa158015611e27573d6000803e3d6000fd5b505050506040513d601f19601f82011682018060405250810190611e4b9190614671565b73ffffffffffffffffffffffffffffffffffffffff161480611eb65750601260008473ffffffffffffffffffffffffffffffffffffffff1673ffffffffffffffffffffffffffffffffffffffff16815260200190815260200160002060009054906101000a900460ff165b15611ec5576001915050611ed3565b611ecf8484612a4b565b9150505b92915050565b611ee16121d6565b73ffffffffffffffffffffffffffffffffffffffff16611eff611793565b73ffffffffffffffffffffffffffffffffffffffff1614611f55576040517f08c379a0000000000000000000000000000000000000000000000000000000008152600401611f4c90613ce6565b60405180910390fd5b600073ffffffffffffffffffffffffffffffffffffffff168173ffffffffffffffffffffffffffffffffffffffff161415611fc5576040517f08c379a0000000000000000000000000000000000000000000000000000000008152600401611fbc90614710565b60405180910390fd5b611fce8161265b565b50565b611fd96121d6565b73ffffffffffffffffffffffffffffffffffffffff16611ff7611793565b73ffffffffffffffffffffffffffffffffffffffff161461204d576040517f08c379a000000000000000000000000000000000000000000000000000000000815260040161204490613ce6565b60405180910390fd5b601260008273ffffffffffffffffffffffffffffffffffffffff1673ffffffffffffffffffffffffffffffffffffffff16815260200190815260200160002060009054906101000a900460ff1615601260008373ffffffffffffffffffffffffffffffffffffffff1673ffffffffffffffffffffffffffffffffffffffff16815260200190815260200160002060006101000a81548160ff02191690831515021790555050565b60007f80ac58cd000000000000000000000000000000000000000000000000000000007bffffffffffffffffffffffffffffffffffffffffffffffffffffffff1916827bffffffffffffffffffffffffffffffffffffffffffffffffffffffff191614806121bf57507f5b5e139f000000000000000000000000000000000000000000000000000000007bffffffffffffffffffffffffffffffffffffffffffffffffffffffff1916827bffffffffffffffffffffffffffffffffffffffffffffffffffffffff1916145b806121cf57506121ce82612adf565b5b9050919050565b600033905090565b60008073ffffffffffffffffffffffffffffffffffffffff166002600084815260200190815260200160002060009054906101000a900473ffffffffffffffffffffffffffffffffffffffff1673ffffffffffffffffffffffffffffffffffffffff1614159050919050565b816004600083815260200190815260200160002060006101000a81548173ffffffffffffffffffffffffffffffffffffffff021916908373ffffffffffffffffffffffffffffffffffffffff160217905550808273ffffffffffffffffffffffffffffffffffffffff166122bd83611513565b73ffffffffffffffffffffffffffffffffffffffff167f8c5be1e5ebec7d5bd14f71427d1e84f3dd0314c0f7b2291e5b200ac8c7c3b92560405160405180910390a45050565b600061230e826121de565b61234d576040517f08c379a0000000000000000000000000000000000000000000000000000000008152600401612344906147a2565b60405180910390fd5b600061235883611513565b90508073ffffffffffffffffffffffffffffffffffffffff168473ffffffffffffffffffffffffffffffffffffffff1614806123c757508373ffffffffffffffffffffffffffffffffffffffff166123af84610acb565b73ffffffffffffffffffffffffffffffffffffffff16145b806123d857506123d78185611d92565b5b91505092915050565b8273ffffffffffffffffffffffffffffffffffffffff1661240182611513565b73ffffffffffffffffffffffffffffffffffffffff1614612457576040517f08c379a000000000000000000000000000000000000000000000000000000000815260040161244e90614834565b60405180910390fd5b600073ffffffffffffffffffffffffffffffffffffffff168273ffffffffffffffffffffffffffffffffffffffff1614156124c7576040517f08c379a00000000000000000000000000000000000000000000000000000000081526004016124be906148c6565b60405180910390fd5b6124d2838383612b49565b6124dd60008261224a565b6001600360008573ffffffffffffffffffffffffffffffffffffffff1673ffffffffffffffffffffffffffffffffffffffff168152602001908152602001600020600082825461252d919061417b565b925050819055506001600360008473ffffffffffffffffffffffffffffffffffffffff1673ffffffffffffffffffffffffffffffffffffffff168152602001908152602001600020600082825461258491906140dc565b92505081905550816002600083815260200190815260200160002060006101000a81548173ffffffffffffffffffffffffffffffffffffffff021916908373ffffffffffffffffffffffffffffffffffffffff160217905550808273ffffffffffffffffffffffffffffffffffffffff168473ffffffffffffffffffffffffffffffffffffffff167fddf252ad1be2c89b69c2b068fc378daa952ba7f163c4a11628f55a4df523b3ef60405160405180910390a4505050565b612657828260405180602001604052806000815250612c5d565b5050565b6000600a60009054906101000a900473ffffffffffffffffffffffffffffffffffffffff16905081600a60006101000a81548173ffffffffffffffffffffffffffffffffffffffff021916908373ffffffffffffffffffffffffffffffffffffffff1602179055508173ffffffffffffffffffffffffffffffffffffffff168173ffffffffffffffffffffffffffffffffffffffff167f8be0079c531659141344cd1fd0a4f28419497f9722a3daafe3b4186f6b6457e060405160405180910390a35050565b8173ffffffffffffffffffffffffffffffffffffffff168373ffffffffffffffffffffffffffffffffffffffff161415612790576040517f08c379a000000000000000000000000000000000000000000000000000000000815260040161278790614932565b60405180910390fd5b80600560008573ffffffffffffffffffffffffffffffffffffffff1673ffffffffffffffffffffffffffffffffffffffff16815260200190815260200160002060008473ffffffffffffffffffffffffffffffffffffffff1673ffffffffffffffffffffffffffffffffffffffff16815260200190815260200160002060006101000a81548160ff0219169083151502179055508173ffffffffffffffffffffffffffffffffffffffff168373ffffffffffffffffffffffffffffffffffffffff167f17307eab39ab6107e8899845ad3d59bd9653f200f220920489ca2b5937696c31836040516128819190613483565b60405180910390a3505050565b6128998484846123e1565b6128a584848484612cb8565b6128e4576040517f08c379a00000000000000000000000000000000000000000000000000000000081526004016128db906149c4565b60405180910390fd5b50505050565b60606000821415612932576040518060400160405280600181526020017f30000000000000000000000000000000000000000000000000000000000000008152509050612a46565b600082905060005b6000821461296457808061294d90614132565b915050600a8261295d9190614a13565b915061293a565b60008167ffffffffffffffff8111156129805761297f613871565b5b6040519080825280601f01601f1916602001820160405280156129b25781602001600182028036833780820191505090505b5090505b60008514612a3f576001826129cb919061417b565b9150600a856129da9190614a44565b60306129e691906140dc565b60f81b8183815181106129fc576129fb6142e1565b5b60200101907effffffffffffffffffffffffffffffffffffffffffffffffffffffffffffff1916908160001a905350600a85612a389190614a13565b94506129b6565b8093505050505b919050565b6000600560008473ffffffffffffffffffffffffffffffffffffffff1673ffffffffffffffffffffffffffffffffffffffff16815260200190815260200160002060008373ffffffffffffffffffffffffffffffffffffffff1673ffffffffffffffffffffffffffffffffffffffff16815260200190815260200160002060009054906101000a900460ff16905092915050565b60007f01ffc9a7000000000000000000000000000000000000000000000000000000007bffffffffffffffffffffffffffffffffffffffffffffffffffffffff1916827bffffffffffffffffffffffffffffffffffffffffffffffffffffffff1916149050919050565b612b54838383612e40565b600073ffffffffffffffffffffffffffffffffffffffff168373ffffffffffffffffffffffffffffffffffffffff161415612b9757612b9281612e45565b612bd6565b8173ffffffffffffffffffffffffffffffffffffffff168373ffffffffffffffffffffffffffffffffffffffff1614612bd557612bd48382612e8e565b5b5b600073ffffffffffffffffffffffffffffffffffffffff168273ffffffffffffffffffffffffffffffffffffffff161415612c1957612c1481612ffb565b612c58565b8273ffffffffffffffffffffffffffffffffffffffff168273ffffffffffffffffffffffffffffffffffffffff1614612c5757612c5682826130cc565b5b5b505050565b612c67838361314b565b612c746000848484612cb8565b612cb3576040517f08c379a0000000000000000000000000000000000000000000000000000000008152600401612caa906149c4565b60405180910390fd5b505050565b6000612cd98473ffffffffffffffffffffffffffffffffffffffff16613319565b15612e33578373ffffffffffffffffffffffffffffffffffffffff1663150b7a02612d026121d6565b8786866040518563ffffffff1660e01b8152600401612d249493929190614aca565b6020604051808303816000875af1925050508015612d6057506040513d601f19601f82011682018060405250810190612d5d9190614b2b565b60015b612de3573d8060008114612d90576040519150601f19603f3d011682016040523d82523d6000602084013e612d95565b606091505b50600081511415612ddb576040517f08c379a0000000000000000000000000000000000000000000000000000000008152600401612dd2906149c4565b60405180910390fd5b805181602001fd5b63150b7a0260e01b7bffffffffffffffffffffffffffffffffffffffffffffffffffffffff1916817bffffffffffffffffffffffffffffffffffffffffffffffffffffffff191614915050612e38565b600190505b949350505050565b505050565b6008805490506009600083815260200190815260200160002081905550600881908060018154018082558091505060019003906000526020600020016000909190919091505550565b60006001612e9b84611653565b612ea5919061417b565b9050600060076000848152602001908152602001600020549050818114612f8a576000600660008673ffffffffffffffffffffffffffffffffffffffff1673ffffffffffffffffffffffffffffffffffffffff168152602001908152602001600020600084815260200190815260200160002054905080600660008773ffffffffffffffffffffffffffffffffffffffff1673ffffffffffffffffffffffffffffffffffffffff168152602001908152602001600020600084815260200190815260200160002081905550816007600083815260200190815260200160002081905550505b6007600084815260200190815260200160002060009055600660008573ffffffffffffffffffffffffffffffffffffffff1673ffffffffffffffffffffffffffffffffffffffff16815260200190815260200160002060008381526020019081526020016000206000905550505050565b6000600160088054905061300f919061417b565b905060006009600084815260200190815260200160002054905060006008838154811061303f5761303e6142e1565b5b906000526020600020015490508060088381548110613061576130606142e1565b5b9060005260206000200181905550816009600083815260200190815260200160002081905550600960008581526020019081526020016000206000905560088054806130b0576130af614b58565b5b6001900381819060005260206000200160009055905550505050565b60006130d783611653565b905081600660008573ffffffffffffffffffffffffffffffffffffffff1673ffffffffffffffffffffffffffffffffffffffff168152602001908152602001600020600083815260200190815260200160002081905550806007600084815260200190815260200160002081905550505050565b600073ffffffffffffffffffffffffffffffffffffffff168273ffffffffffffffffffffffffffffffffffffffff1614156131bb576040517f08c379a00000000000000000000000000000000000000000000000000000000081526004016131b290614bd3565b60405180910390fd5b6131c4816121de565b15613204576040517f08c379a00000000000000000000000000000000000000000000000000000000081526004016131fb90614c3f565b60405180910390fd5b61321060008383612b49565b6001600360008473ffffffffffffffffffffffffffffffffffffffff1673ffffffffffffffffffffffffffffffffffffffff168152602001908152602001600020600082825461326091906140dc565b92505081905550816002600083815260200190815260200160002060006101000a81548173ffffffffffffffffffffffffffffffffffffffff021916908373ffffffffffffffffffffffffffffffffffffffff160217905550808273ffffffffffffffffffffffffffffffffffffffff16600073ffffffffffffffffffffffffffffffffffffffff167fddf252ad1be2c89b69c2b068fc378daa952ba7f163c4a11628f55a4df523b3ef60405160405180910390a45050565b600080823b905060008111915050919050565b82805461333890613d35565b90600052602060002090601f01602090048101928261335a57600085556133a1565b82601f1061337357805160ff19168380011785556133a1565b828001600101855582156133a1579182015b828111156133a0578251825591602001919060010190613385565b5b5090506133ae91906133b2565b5090565b5b808211156133cb5760008160009055506001016133b3565b5090565b6000604051905090565b600080fd5b600080fd5b60007fffffffff0000000000000000000000000000000000000000000000000000000082169050919050565b613418816133e3565b811461342357600080fd5b50565b6000813590506134358161340f565b92915050565b600060208284031215613451576134506133d9565b5b600061345f84828501613426565b91505092915050565b60008115159050919050565b61347d81613468565b82525050565b60006020820190506134986000830184613474565b92915050565b6134a781613468565b81146134b257600080fd5b50565b6000813590506134c48161349e565b92915050565b6000602082840312156134e0576134df6133d9565b5b60006134ee848285016134b5565b91505092915050565b600081519050919050565b600082825260208201905092915050565b60005b83811015613531578082015181840152602081019050613516565b83811115613540576000848401525b50505050565b6000601f19601f8301169050919050565b6000613562826134f7565b61356c8185613502565b935061357c818560208601613513565b61358581613546565b840191505092915050565b600060208201905081810360008301526135aa8184613557565b905092915050565b6000819050919050565b6135c5816135b2565b81146135d057600080fd5b50565b6000813590506135e2816135bc565b92915050565b6000602082840312156135fe576135fd6133d9565b5b600061360c848285016135d3565b91505092915050565b600073ffffffffffffffffffffffffffffffffffffffff82169050919050565b600061364082613615565b9050919050565b61365081613635565b82525050565b600060208201905061366b6000830184613647565b92915050565b61367a81613635565b811461368557600080fd5b50565b60008135905061369781613671565b92915050565b600080604083850312156136b4576136b36133d9565b5b60006136c285828601613688565b92505060206136d3858286016135d3565b9150509250929050565b6136e6816135b2565b82525050565b600060208201905061370160008301846136dd565b92915050565b6000806000606084860312156137205761371f6133d9565b5b600061372e86828701613688565b935050602061373f86828701613688565b9250506040613750868287016135d3565b9150509250925092565b6000602082840312156137705761376f6133d9565b5b600061377e84828501613688565b91505092915050565b600081519050919050565b600082825260208201905092915050565b6000819050602082019050919050565b6137bc816135b2565b82525050565b60006137ce83836137b3565b60208301905092915050565b6000602082019050919050565b60006137f282613787565b6137fc8185613792565b9350613807836137a3565b8060005b8381101561383857815161381f88826137c2565b975061382a836137da565b92505060018101905061380b565b5085935050505092915050565b6000602082019050818103600083015261385f81846137e7565b905092915050565b600080fd5b600080fd5b7f4e487b7100000000000000000000000000000000000000000000000000000000600052604160045260246000fd5b6138a982613546565b810181811067ffffffffffffffff821117156138c8576138c7613871565b5b80604052505050565b60006138db6133cf565b90506138e782826138a0565b919050565b600067ffffffffffffffff82111561390757613906613871565b5b61391082613546565b9050602081019050919050565b82818337600083830152505050565b600061393f61393a846138ec565b6138d1565b90508281526020810184848401111561395b5761395a61386c565b5b61396684828561391d565b509392505050565b600082601f83011261398357613982613867565b5b813561399384826020860161392c565b91505092915050565b6000602082840312156139b2576139b16133d9565b5b600082013567ffffffffffffffff8111156139d0576139cf6133de565b5b6139dc8482850161396e565b91505092915050565b600067ffffffffffffffff821115613a00576139ff613871565b5b602082029050602081019050919050565b600080fd5b6000613a29613a24846139e5565b6138d1565b90508083825260208201905060208402830185811115613a4c57613a4b613a11565b5b835b81811015613a755780613a618882613688565b845260208401935050602081019050613a4e565b5050509392505050565b600082601f830112613a9457613a93613867565b5b8135613aa4848260208601613a16565b91505092915050565b600060208284031215613ac357613ac26133d9565b5b600082013567ffffffffffffffff811115613ae157613ae06133de565b5b613aed84828501613a7f565b91505092915050565b60008060408385031215613b0d57613b0c6133d9565b5b6000613b1b85828601613688565b9250506020613b2c858286016134b5565b9150509250929050565b600067ffffffffffffffff821115613b5157613b50613871565b5b613b5a82613546565b9050602081019050919050565b6000613b7a613b7584613b36565b6138d1565b905082815260208101848484011115613b9657613b9561386c565b5b613ba184828561391d565b509392505050565b600082601f830112613bbe57613bbd613867565b5b8135613bce848260208601613b67565b91505092915050565b60008060008060808587031215613bf157613bf06133d9565b5b6000613bff87828801613688565b9450506020613c1087828801613688565b9350506040613c21878288016135d3565b925050606085013567ffffffffffffffff811115613c4257613c416133de565b5b613c4e87828801613ba9565b91505092959194509250565b60008060408385031215613c7157613c706133d9565b5b6000613c7f85828601613688565b9250506020613c9085828601613688565b9150509250929050565b7f4f776e61626c653a2063616c6c6572206973206e6f7420746865206f776e6572600082015250565b6000613cd0602083613502565b9150613cdb82613c9a565b602082019050919050565b60006020820190508181036000830152613cff81613cc3565b9050919050565b7f4e487b7100000000000000000000000000000000000000000000000000000000600052602260045260246000fd5b60006002820490506001821680613d4d57607f821691505b60208210811415613d6157613d60613d06565b5b50919050565b7f4552433732313a20617070726f76656420717565727920666f72206e6f6e657860008201527f697374656e7420746f6b656e0000000000000000000000000000000000000000602082015250565b6000613dc3602c83613502565b9150613dce82613d67565b604082019050919050565b60006020820190508181036000830152613df281613db6565b9050919050565b7f4552433732313a20617070726f76616c20746f2063757272656e74206f776e6560008201527f7200000000000000000000000000000000000000000000000000000000000000602082015250565b6000613e55602183613502565b9150613e6082613df9565b604082019050919050565b60006020820190508181036000830152613e8481613e48565b9050919050565b7f4552433732313a20617070726f76652063616c6c6572206973206e6f74206f7760008201527f6e6572206e6f7220617070726f76656420666f7220616c6c0000000000000000602082015250565b6000613ee7603883613502565b9150613ef282613e8b565b604082019050919050565b60006020820190508181036000830152613f1681613eda565b9050919050565b7f4552433732313a207472616e736665722063616c6c6572206973206e6f74206f60008201527f776e6572206e6f7220617070726f766564000000000000000000000000000000602082015250565b6000613f79603183613502565b9150613f8482613f1d565b604082019050919050565b60006020820190508181036000830152613fa881613f6c565b9050919050565b7f455243373231456e756d657261626c653a206f776e657220696e646578206f7560008201527f74206f6620626f756e6473000000000000000000000000000000000000000000602082015250565b600061400b602b83613502565b915061401682613faf565b604082019050919050565b6000602082019050818103600083015261403a81613ffe565b9050919050565b7f4578636565647320726573657276656420737570706c79000000000000000000600082015250565b6000614077601783613502565b915061408282614041565b602082019050919050565b600060208201905081810360008301526140a68161406a565b9050919050565b7f4e487b7100000000000000000000000000000000000000000000000000000000600052601160045260246000fd5b60006140e7826135b2565b91506140f2836135b2565b9250827fffffffffffffffffffffffffffffffffffffffffffffffffffffffffffffffff03821115614127576141266140ad565b5b828201905092915050565b600061413d826135b2565b91507fffffffffffffffffffffffffffffffffffffffffffffffffffffffffffffffff8214156141705761416f6140ad565b5b600182019050919050565b6000614186826135b2565b9150614191836135b2565b9250828210156141a4576141a36140ad565b5b828203905092915050565b7f57616c6c6574206c696d697420697320726561636865642e0000000000000000600082015250565b60006141e5601883613502565b91506141f0826141af565b602082019050919050565b60006020820190508181036000830152614214816141d8565b9050919050565b6000614226826135b2565b9150614231836135b2565b9250817fffffffffffffffffffffffffffffffffffffffffffffffffffffffffffffffff048311821515161561426a576142696140ad565b5b828202905092915050565b7f41646472657373206973206e6f742077686974656c69737465642e0000000000600082015250565b60006142ab601b83613502565b91506142b682614275565b602082019050919050565b600060208201905081810360008301526142da8161429e565b9050919050565b7f4e487b7100000000000000000000000000000000000000000000000000000000600052603260045260246000fd5b7f455243373231456e756d657261626c653a20676c6f62616c20696e646578206f60008201527f7574206f6620626f756e64730000000000000000000000000000000000000000602082015250565b600061436c602c83613502565b915061437782614310565b604082019050919050565b6000602082019050818103600083015261439b8161435f565b9050919050565b7f4552433732313a206f776e657220717565727920666f72206e6f6e657869737460008201527f656e7420746f6b656e0000000000000000000000000000000000000000000000602082015250565b60006143fe602983613502565b9150614409826143a2565b604082019050919050565b6000602082019050818103600083015261442d816143f1565b9050919050565b7f4552433732313a2062616c616e636520717565727920666f7220746865207a6560008201527f726f206164647265737300000000000000000000000000000000000000000000602082015250565b6000614490602a83613502565b915061449b82614434565b604082019050919050565b600060208201905081810360008301526144bf81614483565b9050919050565b7f546f6b656e20646f6573206e6f742065786973742e0000000000000000000000600082015250565b60006144fc601583613502565b9150614507826144c6565b602082019050919050565b6000602082019050818103600083015261452b816144ef565b9050919050565b600081905092915050565b60008190508160005260206000209050919050565b6000815461455f81613d35565b6145698186614532565b945060018216600081146145845760018114614595576145c8565b60ff198316865281860193506145c8565b61459e8561453d565b60005b838110156145c0578154818901526001820191506020810190506145a1565b838801955050505b50505092915050565b60006145dc826134f7565b6145e68185614532565b93506145f6818560208601613513565b80840191505092915050565b600061460e8286614552565b915061461a82856145d1565b91506146268284614552565b9150819050949350505050565b600061463e82613635565b9050919050565b61464e81614633565b811461465957600080fd5b50565b60008151905061466b81614645565b92915050565b600060208284031215614687576146866133d9565b5b60006146958482850161465c565b91505092915050565b7f4f776e61626c653a206e6577206f776e657220697320746865207a65726f206160008201527f6464726573730000000000000000000000000000000000000000000000000000602082015250565b60006146fa602683613502565b91506147058261469e565b604082019050919050565b60006020820190508181036000830152614729816146ed565b9050919050565b7f4552433732313a206f70657261746f7220717565727920666f72206e6f6e657860008201527f697374656e7420746f6b656e0000000000000000000000000000000000000000602082015250565b600061478c602c83613502565b915061479782614730565b604082019050919050565b600060208201905081810360008301526147bb8161477f565b9050919050565b7f4552433732313a207472616e73666572206f6620746f6b656e2074686174206960008201527f73206e6f74206f776e0000000000000000000000000000000000000000000000602082015250565b600061481e602983613502565b9150614829826147c2565b604082019050919050565b6000602082019050818103600083015261484d81614811565b9050919050565b7f4552433732313a207472616e7366657220746f20746865207a65726f2061646460008201527f7265737300000000000000000000000000000000000000000000000000000000602082015250565b60006148b0602483613502565b91506148bb82614854565b604082019050919050565b600060208201905081810360008301526148df816148a3565b9050919050565b7f4552433732313a20617070726f766520746f2063616c6c657200000000000000600082015250565b600061491c601983613502565b9150614927826148e6565b602082019050919050565b6000602082019050818103600083015261494b8161490f565b9050919050565b7f4552433732313a207472616e7366657220746f206e6f6e20455243373231526560008201527f63656976657220696d706c656d656e7465720000000000000000000000000000602082015250565b60006149ae603283613502565b91506149b982614952565b604082019050919050565b600060208201905081810360008301526149dd816149a1565b9050919050565b7f4e487b7100000000000000000000000000000000000000000000000000000000600052601260045260246000fd5b6000614a1e826135b2565b9150614a29836135b2565b925082614a3957614a386149e4565b5b828204905092915050565b6000614a4f826135b2565b9150614a5a836135b2565b925082614a6a57614a696149e4565b5b828206905092915050565b600081519050919050565b600082825260208201905092915050565b6000614a9c82614a75565b614aa68185614a80565b9350614ab6818560208601613513565b614abf81613546565b840191505092915050565b6000608082019050614adf6000830187613647565b614aec6020830186613647565b614af960408301856136dd565b8181036060830152614b0b8184614a91565b905095945050505050565b600081519050614b258161340f565b92915050565b600060208284031215614b4157614b406133d9565b5b6000614b4f84828501614b16565b91505092915050565b7f4e487b7100000000000000000000000000000000000000000000000000000000600052603160045260246000fd5b7f4552433732313a206d696e7420746f20746865207a65726f2061646472657373600082015250565b6000614bbd602083613502565b9150614bc882614b87565b602082019050919050565b60006020820190508181036000830152614bec81614bb0565b9050919050565b7f4552433732313a20746f6b656e20616c7265616479206d696e74656400000000600082015250565b6000614c29601c83613502565b9150614c3482614bf3565b602082019050919050565b60006020820190508181036000830152614c5881614c1c565b905091905056fea2646970667358221220ab2cc6b34f6d04d9c13785c043f017ce87768e67ff6bdddbf77d1a076a50fcb964736f6c634300080a0033",
  "immutableReferences": {},
  "source": "// SPDX-License-Identifier: MIT\r\n\r\nimport '@OpenZeppelin/contracts/token/ERC721/extensions/ERC721Enumerable.sol';\r\nimport '@OpenZeppelin/contracts/access/Ownable.sol';\r\n\r\n// Contract: X07 Kiddos\r\n// Created by: Notifao Technologies Corp.\r\n\r\npragma solidity ^0.8.7;\r\n\r\ncontract X07Kiddos is ERC721Enumerable, Ownable {\r\n    using Strings for uint256;\r\n    string public baseURI;\r\n    string public baseExtension = \".json\";\r\n    uint256 private _reserved = 108;        // -1 = 107 reserved tokens\r\n    uint256 public cost = 0.07 ether;       // mint price\r\n    bool public paused = false;\r\n    bool public whitelistOnly = true;\r\n    mapping(address => bool) public whitelisted;\r\n    address public proxyRegistryAddress;    // OpenSea proxy address to eliminate fees on approval\r\n    \r\n    mapping(address => bool) public projectProxy;\r\n\r\n    constructor(\r\n        string memory _name,\r\n        string memory _symbol,\r\n        string memory _initBaseURI,\r\n        address _proxyRegistryAddress\r\n    ) ERC721(_name, _symbol) {\r\n        setBaseURI(_initBaseURI);\r\n        proxyRegistryAddress = _proxyRegistryAddress;\r\n    }\r\n\r\n    // internal\r\n    function _baseURI() internal view virtual override returns (string memory) {\r\n        return baseURI;\r\n    }\r\n\r\n    // public\r\n    function mint(address _to, uint256 _mintAmount) public payable {\r\n        uint256 supply = totalSupply();\r\n        require(!paused);\r\n        require(_mintAmount > 0);\r\n        require(_mintAmount < 11);                                                          // -1 = 10 is max mint amount\r\n        require(supply + _mintAmount < 7778 - _reserved);                                   // -1 = 7777 is token max supply\r\n        require((balanceOf(msg.sender) + _mintAmount) < 11, \"Wallet limit is reached.\");    // -1 = 10 is max wallet limit\r\n\r\n        if (whitelistOnly == false) {\r\n            if (msg.sender != owner()) {\r\n                if(whitelisted[msg.sender] != true) {\r\n                    require(msg.value >= cost * _mintAmount);\r\n                }\r\n            }\r\n    \r\n            for (uint256 i; i < _mintAmount; i++) {\r\n                _safeMint(_to, supply + i);\r\n            }\r\n        }\r\n        else if (whitelistOnly == true) {\r\n            require(whitelisted[msg.sender] == true, \"Address is not whitelisted.\");\r\n            \r\n            for (uint256 i; i < _mintAmount; i++) {\r\n                _safeMint(_to, supply + i);\r\n            }\r\n        }\r\n    }\r\n\r\n    function walletOfOwner(address _owner) public view returns (uint256[] memory) {\r\n        uint256 tokenCount = balanceOf(_owner);\r\n        if (tokenCount == 0) return new uint256[](0);\r\n\r\n        uint256[] memory tokensId = new uint256[](tokenCount);\r\n        for (uint256 i; i < tokenCount; i++) {\r\n            tokensId[i] = tokenOfOwnerByIndex(_owner, i);\r\n        }\r\n        return tokensId;\r\n    }\r\n\r\n    function tokenURI(uint256 tokenId) public view override returns (string memory) {\r\n        require(_exists(tokenId), \"Token does not exist.\");\r\n        return string(abi.encodePacked(baseURI, tokenId.toString(), baseExtension));\r\n    }\r\n\r\n // only owner\r\n\r\n    function collectReserves(address _to, uint256 _reservesAmount) external onlyOwner() {\r\n        require(_reservesAmount < _reserved, \"Exceeds reserved supply\");\r\n\r\n        uint256 supply = totalSupply();\r\n        for(uint256 i; i < _reservesAmount; i++){\r\n            _safeMint(_to, supply + i);\r\n        }\r\n\r\n        _reserved -= _reservesAmount;\r\n    }\r\n    \r\n    function setProxyRegistryAddress(address _proxyRegistryAddress) external onlyOwner {\r\n        proxyRegistryAddress = _proxyRegistryAddress;\r\n    }\r\n\r\n    function flipProxyState(address proxyAddress) public onlyOwner {\r\n        projectProxy[proxyAddress] = !projectProxy[proxyAddress];\r\n    }\r\n \r\n    function setBaseURI(string memory _newBaseURI) public onlyOwner {\r\n        baseURI = _newBaseURI;\r\n    }\r\n\r\n    function setBaseExtension(string memory _newBaseExtension) public onlyOwner {\r\n        baseExtension = _newBaseExtension;\r\n      }\r\n\r\n    function pause(bool _state) public onlyOwner {\r\n        paused = _state;\r\n    }\r\n \r\n    function activateWhitelist(bool _state) public onlyOwner {\r\n        whitelistOnly = _state;\r\n    }\r\n \r\n    function whitelistUser(address[] memory _user) public onlyOwner {\r\n        uint256 x = 0;\r\n        for (x = 0; x < _user.length; x++) {\r\n            whitelisted[_user[x]] = true;\r\n        }\r\n    }\r\n \r\n    function removeWhitelistUser(address[] memory _user) public onlyOwner {\r\n        uint256 x = 0;\r\n        for (x = 0; x < _user.length; x++) {\r\n            whitelisted[_user[x]] = false;\r\n        }\r\n    }\r\n  \r\n    function withdraw() public payable onlyOwner {\r\n        require(payable(msg.sender).send(address(this).balance));\r\n    }\r\n\r\n    function isApprovedForAll(address _owner, address operator) public view override returns (bool) {\r\n        OpenSeaProxyRegistry proxyRegistry = OpenSeaProxyRegistry(proxyRegistryAddress);\r\n        if (address(proxyRegistry.proxies(_owner)) == operator || projectProxy[operator]) return true;\r\n        return super.isApprovedForAll(_owner, operator);\r\n    }\r\n     \r\n}\r\n\r\ncontract OwnableDelegateProxy { }\r\ncontract OpenSeaProxyRegistry {\r\n    mapping(address => OwnableDelegateProxy) public proxies;\r\n}",
  "sourcePath": "C:\\Users\\Dapp Master\\Desktop\\nft-minting-xkid\\src\\components\\nft\\contracts\\X07Kiddos.sol",
  "compiler": {
    "name": "solc",
    "version": "0.8.10+commit.fc410830.Emscripten.clang"
  },
  "schemaVersion": "3.4.4",
  "updatedAt": "2022-01-07T07:39:04.784Z",
  "networkType": "ethereum",
  "devdoc": {
    "kind": "dev",
    "methods": {
      "approve(address,uint256)": {
        "details": "See {IERC721-approve}."
      },
      "balanceOf(address)": {
        "details": "See {IERC721-balanceOf}."
      },
      "getApproved(uint256)": {
        "details": "See {IERC721-getApproved}."
      },
      "name()": {
        "details": "See {IERC721Metadata-name}."
      },
      "owner()": {
        "details": "Returns the address of the current owner."
      },
      "ownerOf(uint256)": {
        "details": "See {IERC721-ownerOf}."
      },
      "renounceOwnership()": {
        "details": "Leaves the contract without owner. It will not be possible to call `onlyOwner` functions anymore. Can only be called by the current owner. NOTE: Renouncing ownership will leave the contract without an owner, thereby removing any functionality that is only available to the owner."
      },
      "safeTransferFrom(address,address,uint256)": {
        "details": "See {IERC721-safeTransferFrom}."
      },
      "safeTransferFrom(address,address,uint256,bytes)": {
        "details": "See {IERC721-safeTransferFrom}."
      },
      "setApprovalForAll(address,bool)": {
        "details": "See {IERC721-setApprovalForAll}."
      },
      "supportsInterface(bytes4)": {
        "details": "See {IERC165-supportsInterface}."
      },
      "symbol()": {
        "details": "See {IERC721Metadata-symbol}."
      },
      "tokenByIndex(uint256)": {
        "details": "See {IERC721Enumerable-tokenByIndex}."
      },
      "tokenOfOwnerByIndex(address,uint256)": {
        "details": "See {IERC721Enumerable-tokenOfOwnerByIndex}."
      },
      "tokenURI(uint256)": {
        "details": "See {IERC721Metadata-tokenURI}."
      },
      "totalSupply()": {
        "details": "See {IERC721Enumerable-totalSupply}."
      },
      "transferFrom(address,address,uint256)": {
        "details": "See {IERC721-transferFrom}."
      },
      "transferOwnership(address)": {
        "details": "Transfers ownership of the contract to a new account (`newOwner`). Can only be called by the current owner."
      }
    },
    "version": 1
  },
  "userdoc": {
    "kind": "user",
    "methods": {},
    "version": 1
  }
}